{
  "_format": "hh-sol-artifact-1",
  "contractName": "lottery",
  "sourceName": "contracts/lottery.sol",
  "abi": [
    {
      "inputs": [
        {
          "internalType": "address",
          "name": "vrfCoordinatorV2",
          "type": "address"
        },
        {
          "internalType": "uint256",
          "name": "_entranceFee",
          "type": "uint256"
        },
        {
          "internalType": "bytes32",
          "name": "_gasLane",
          "type": "bytes32"
        },
        {
          "internalType": "uint64",
          "name": "_subscriptionId",
          "type": "uint64"
        },
        {
          "internalType": "uint32",
          "name": "_callbackGasLimit",
          "type": "uint32"
        },
        {
          "internalType": "uint256",
          "name": "_intervall",
          "type": "uint256"
        }
      ],
      "stateMutability": "nonpayable",
      "type": "constructor"
    },
    {
      "inputs": [
        {
          "internalType": "address",
          "name": "have",
          "type": "address"
        },
        {
          "internalType": "address",
          "name": "want",
          "type": "address"
        }
      ],
      "name": "OnlyCoordinatorCanFulfill",
      "type": "error"
    },
    {
      "inputs": [],
      "name": "lottery_entrance_fee_not_met",
      "type": "error"
    },
    {
      "inputs": [],
      "name": "lottery_not_open",
      "type": "error"
    },
    {
      "inputs": [
        {
          "internalType": "uint256",
          "name": "lotteryState",
          "type": "uint256"
        },
        {
          "internalType": "uint256",
          "name": "playersNumber",
          "type": "uint256"
        },
        {
          "internalType": "uint256",
          "name": "currentBalance",
          "type": "uint256"
        }
      ],
      "name": "lottery_not_time_yet",
      "type": "error"
    },
    {
      "inputs": [],
      "name": "lottery_transfer_failed",
      "type": "error"
    },
    {
      "anonymous": false,
      "inputs": [
        {
          "indexed": true,
          "internalType": "address",
          "name": "recentWinner",
          "type": "address"
        }
      ],
      "name": "declaredlotteryWinner",
      "type": "event"
    },
    {
      "anonymous": false,
      "inputs": [
        {
          "indexed": true,
          "internalType": "address",
          "name": "participent",
          "type": "address"
        }
      ],
      "name": "lotteryEntered",
      "type": "event"
    },
    {
      "anonymous": false,
      "inputs": [
        {
          "indexed": false,
          "internalType": "uint256",
          "name": "requestId",
          "type": "uint256"
        }
      ],
      "name": "requestedlotteryWinner",
      "type": "event"
    },
    {
      "inputs": [],
      "name": "Enter",
      "outputs": [],
      "stateMutability": "payable",
      "type": "function"
    },
    {
      "inputs": [
        {
          "internalType": "bytes",
          "name": "",
          "type": "bytes"
        }
      ],
      "name": "checkUpkeep",
      "outputs": [
        {
          "internalType": "bool",
          "name": "upKeepNeeded",
          "type": "bool"
        },
        {
          "internalType": "bytes",
          "name": "",
          "type": "bytes"
        }
      ],
      "stateMutability": "view",
      "type": "function"
    },
    {
      "inputs": [],
      "name": "getEntranceFee",
      "outputs": [
        {
          "internalType": "uint256",
          "name": "",
          "type": "uint256"
        }
      ],
      "stateMutability": "view",
      "type": "function"
    },
    {
      "inputs": [],
      "name": "getInterval",
      "outputs": [
        {
          "internalType": "uint256",
          "name": "",
          "type": "uint256"
        }
      ],
      "stateMutability": "view",
      "type": "function"
    },
    {
      "inputs": [],
      "name": "getLatestTimeStamp",
      "outputs": [
        {
          "internalType": "uint256",
          "name": "",
          "type": "uint256"
        }
      ],
      "stateMutability": "view",
      "type": "function"
    },
    {
      "inputs": [],
      "name": "getLotteryState",
      "outputs": [
        {
          "internalType": "enum lottery.lotteryState",
          "name": "",
          "type": "uint8"
        }
      ],
      "stateMutability": "view",
      "type": "function"
    },
    {
      "inputs": [],
      "name": "getNumWords",
      "outputs": [
        {
          "internalType": "uint256",
          "name": "",
          "type": "uint256"
        }
      ],
      "stateMutability": "pure",
      "type": "function"
    },
    {
      "inputs": [],
      "name": "getNumberOfConfirmations",
      "outputs": [
        {
          "internalType": "uint256",
          "name": "",
          "type": "uint256"
        }
      ],
      "stateMutability": "pure",
      "type": "function"
    },
    {
      "inputs": [],
      "name": "getNumberOfPlayers",
      "outputs": [
        {
          "internalType": "uint256",
          "name": "",
          "type": "uint256"
        }
      ],
      "stateMutability": "view",
      "type": "function"
    },
    {
      "inputs": [
        {
          "internalType": "uint256",
          "name": "index",
          "type": "uint256"
        }
      ],
      "name": "getParticipent",
      "outputs": [
        {
          "internalType": "address",
          "name": "",
          "type": "address"
        }
      ],
      "stateMutability": "view",
      "type": "function"
    },
    {
      "inputs": [],
      "name": "getRecentWinner",
      "outputs": [
        {
          "internalType": "address payable",
          "name": "",
          "type": "address"
        }
      ],
      "stateMutability": "view",
      "type": "function"
    },
    {
      "inputs": [
        {
          "internalType": "bytes",
          "name": "",
          "type": "bytes"
        }
      ],
      "name": "performUpkeep",
      "outputs": [],
      "stateMutability": "nonpayable",
      "type": "function"
    },
    {
      "inputs": [
        {
          "internalType": "uint256",
          "name": "requestId",
          "type": "uint256"
        },
        {
          "internalType": "uint256[]",
          "name": "randomWords",
          "type": "uint256[]"
        }
      ],
      "name": "rawFulfillRandomWords",
      "outputs": [],
      "stateMutability": "nonpayable",
      "type": "function"
    }
  ],
  "bytecode": "0x6101606040523480156200001257600080fd5b506040516200187f3803806200187f8339818101604052810190620000389190620001ad565b858073ffffffffffffffffffffffffffffffffffffffff1660808173ffffffffffffffffffffffffffffffffffffffff1660601b81525050508061012081815250508461014081815250508573ffffffffffffffffffffffffffffffffffffffff1660a08173ffffffffffffffffffffffffffffffffffffffff1660601b815250508360c081815250508267ffffffffffffffff1660e08167ffffffffffffffff1660c01b815250508163ffffffff166101008163ffffffff1660e01b815250506000600360006101000a81548160ff02191690836001811115620001225762000121620002b5565b5b0217905550426002819055505050505050506200036b565b6000815190506200014b81620002e9565b92915050565b600081519050620001628162000303565b92915050565b60008151905062000179816200031d565b92915050565b600081519050620001908162000337565b92915050565b600081519050620001a78162000351565b92915050565b60008060008060008060c08789031215620001cd57620001cc620002e4565b5b6000620001dd89828a016200013a565b9650506020620001f089828a0162000168565b95505060406200020389828a0162000151565b94505060606200021689828a0162000196565b93505060806200022989828a016200017f565b92505060a06200023c89828a0162000168565b9150509295509295509295565b6000620002568262000267565b9050919050565b6000819050919050565b600073ffffffffffffffffffffffffffffffffffffffff82169050919050565b6000819050919050565b600063ffffffff82169050919050565b600067ffffffffffffffff82169050919050565b7f4e487b7100000000000000000000000000000000000000000000000000000000600052602160045260246000fd5b600080fd5b620002f48162000249565b81146200030057600080fd5b50565b6200030e816200025d565b81146200031a57600080fd5b50565b620003288162000287565b81146200033457600080fd5b50565b620003428162000291565b81146200034e57600080fd5b50565b6200035c81620002a1565b81146200036857600080fd5b50565b60805160601c60a05160601c60c05160e05160c01c6101005160e01c6101205161014051611498620003e7600039600081816102fa015261032001526000818161083a01526108a80152600061068f0152600061066c0152600061064b0152600061060f01526000818161048f01526104e301526114986000f3fe6080604052600436106100c25760003560e01c806353a2c19a1161007f5780636e04ff0d116100595780636e04ff0d1461023757806391ad27b414610275578063a75dd132146102a0578063fd6673f5146102cb576100c2565b806353a2c19a146101a45780636969915f146101cf5780636b68c03c1461020c576100c2565b806309bc33a7146100c75780631097e579146100f25780631fe543e3146100fc578063320229eb146101255780634585e33b14610150578063473f1ddc14610179575b600080fd5b3480156100d357600080fd5b506100dc6102f6565b6040516100e9919061108c565b60405180910390f35b6100fa61031e565b005b34801561010857600080fd5b50610123600480360381019061011e9190610e3b565b61048d565b005b34801561013157600080fd5b5061013a61054d565b604051610147919061108c565b60405180910390f35b34801561015c57600080fd5b5061017760048036038101906101729190610d4b565b610557565b005b34801561018557600080fd5b5061018e610761565b60405161019b9190610faa565b60405180910390f35b3480156101b057600080fd5b506101b961078b565b6040516101c6919061108c565b60405180910390f35b3480156101db57600080fd5b506101f660048036038101906101f19190610de1565b61079a565b6040516102039190610f8f565b60405180910390f35b34801561021857600080fd5b506102216107e1565b60405161022e9190611071565b60405180910390f35b34801561024357600080fd5b5061025e60048036038101906102599190610d98565b6107f8565b60405161026c929190610fee565b60405180910390f35b34801561028157600080fd5b5061028a6108a4565b604051610297919061108c565b60405180910390f35b3480156102ac57600080fd5b506102b56108cc565b6040516102c2919061108c565b60405180910390f35b3480156102d757600080fd5b506102e06108d9565b6040516102ed919061108c565b60405180910390f35b60007f0000000000000000000000000000000000000000000000000000000000000000905090565b7f0000000000000000000000000000000000000000000000000000000000000000341015610378576040517f7b7f2dbe00000000000000000000000000000000000000000000000000000000815260040160405180910390fd5b6000600181111561038c5761038b611378565b5b600360009054906101000a900460ff1660018111156103ae576103ad611378565b5b146103e5576040517fd29482d100000000000000000000000000000000000000000000000000000000815260040160405180910390fd5b6000339080600181540180825580915050600190039060005260206000200160009091909190916101000a81548173ffffffffffffffffffffffffffffffffffffffff021916908373ffffffffffffffffffffffffffffffffffffffff1602179055503373ffffffffffffffffffffffffffffffffffffffff167ff2557515177df102d702a216fd18a4c7068b07027e7f8f2e90788dbdd2d97c6760405160405180910390a2565b7f000000000000000000000000000000000000000000000000000000000000000073ffffffffffffffffffffffffffffffffffffffff163373ffffffffffffffffffffffffffffffffffffffff161461053f57337f00000000000000000000000000000000000000000000000000000000000000006040517f1cf993f4000000000000000000000000000000000000000000000000000000008152600401610536929190610fc5565b60405180910390fd5b61054982826108e5565b5050565b6000600254905090565b6000610571604051806020016040528060008152506107f8565b509050806105e057600360009054906101000a900460ff16600181111561059b5761059a611378565b5b600080549050476040517fc4b58ddd0000000000000000000000000000000000000000000000000000000081526004016105d7939291906110a7565b60405180910390fd5b6001600360006101000a81548160ff0219169083600181111561060657610605611378565b5b021790555060007f000000000000000000000000000000000000000000000000000000000000000073ffffffffffffffffffffffffffffffffffffffff16635d3b1d307f00000000000000000000000000000000000000000000000000000000000000007f000000000000000000000000000000000000000000000000000000000000000060037f000000000000000000000000000000000000000000000000000000000000000060016040518663ffffffff1660e01b81526004016106d095949392919061101e565b602060405180830381600087803b1580156106ea57600080fd5b505af11580156106fe573d6000803e3d6000fd5b505050506040513d601f19601f820116820180604052508101906107229190610e0e565b90507f61b6a8b052a6eb860df6c3e6df46bb360d84a0a7c957e16bd744663f0b7db46781604051610753919061108c565b60405180910390a150505050565b6000600160009054906101000a900473ffffffffffffffffffffffffffffffffffffffff16905090565b6000600163ffffffff16905090565b60008082815481106107af576107ae6113a7565b5b9060005260206000200160009054906101000a900473ffffffffffffffffffffffffffffffffffffffff169050919050565b6000600360009054906101000a900460ff16905090565b60006060600080600181111561081157610810611378565b5b600360009054906101000a900460ff16600181111561083357610832611378565b5b14905060007f0000000000000000000000000000000000000000000000000000000000000000600254426108679190611187565b119050600080600080549050119050600080471190508380156108875750825b80156108905750805b80156108995750815b955050505050915091565b60007f0000000000000000000000000000000000000000000000000000000000000000905090565b6000600361ffff16905090565b60008080549050905090565b6000808054905082600081518110610900576108ff6113a7565b5b602002602001015161091291906112e9565b90506000808281548110610929576109286113a7565b5b9060005260206000200160009054906101000a900473ffffffffffffffffffffffffffffffffffffffff16905080600160006101000a81548173ffffffffffffffffffffffffffffffffffffffff021916908373ffffffffffffffffffffffffffffffffffffffff160217905550600067ffffffffffffffff8111156109b2576109b16113d6565b5b6040519080825280602002602001820160405280156109e05781602001602082028036833780820191505090505b50600090805190602001906109f6929190610b16565b506000600360006101000a81548160ff02191690836001811115610a1d57610a1c611378565b5b02179055504260028190555060008173ffffffffffffffffffffffffffffffffffffffff1647604051610a4f90610f7a565b60006040518083038185875af1925050503d8060008114610a8c576040519150601f19603f3d011682016040523d82523d6000602084013e610a91565b606091505b5050905080610acc576040517ffc00d09600000000000000000000000000000000000000000000000000000000815260040160405180910390fd5b8173ffffffffffffffffffffffffffffffffffffffff167fc1cf272eaf417c322c9bdcf3e8565b669d8334861c8b34568a3fa66561f6262c60405160405180910390a25050505050565b828054828255906000526020600020908101928215610b8f579160200282015b82811115610b8e5782518260006101000a81548173ffffffffffffffffffffffffffffffffffffffff021916908373ffffffffffffffffffffffffffffffffffffffff16021790555091602001919060010190610b36565b5b509050610b9c9190610ba0565b5090565b5b80821115610bb9576000816000905550600101610ba1565b5090565b6000610bd0610bcb84611103565b6110de565b90508083825260208201905082856020860282011115610bf357610bf261140f565b5b60005b85811015610c235781610c098882610d21565b845260208401935060208301925050600181019050610bf6565b5050509392505050565b6000610c40610c3b8461112f565b6110de565b905082815260208101848484011115610c5c57610c5b611414565b5b610c67848285611276565b509392505050565b600082601f830112610c8457610c8361140a565b5b8135610c94848260208601610bbd565b91505092915050565b60008083601f840112610cb357610cb261140a565b5b8235905067ffffffffffffffff811115610cd057610ccf611405565b5b602083019150836001820283011115610cec57610ceb61140f565b5b9250929050565b600082601f830112610d0857610d0761140a565b5b8135610d18848260208601610c2d565b91505092915050565b600081359050610d308161144b565b92915050565b600081519050610d458161144b565b92915050565b60008060208385031215610d6257610d6161141e565b5b600083013567ffffffffffffffff811115610d8057610d7f611419565b5b610d8c85828601610c9d565b92509250509250929050565b600060208284031215610dae57610dad61141e565b5b600082013567ffffffffffffffff811115610dcc57610dcb611419565b5b610dd884828501610cf3565b91505092915050565b600060208284031215610df757610df661141e565b5b6000610e0584828501610d21565b91505092915050565b600060208284031215610e2457610e2361141e565b5b6000610e3284828501610d36565b91505092915050565b60008060408385031215610e5257610e5161141e565b5b6000610e6085828601610d21565b925050602083013567ffffffffffffffff811115610e8157610e80611419565b5b610e8d85828601610c6f565b9150509250929050565b610ea0816111cd565b82525050565b610eaf816111bb565b82525050565b610ebe816111df565b82525050565b610ecd816111eb565b82525050565b6000610ede82611160565b610ee8818561116b565b9350610ef8818560208601611285565b610f0181611423565b840191505092915050565b610f1581611264565b82525050565b6000610f2860008361117c565b9150610f3382611434565b600082019050919050565b610f4781611208565b82525050565b610f5681611236565b82525050565b610f6581611240565b82525050565b610f7481611250565b82525050565b6000610f8582610f1b565b9150819050919050565b6000602082019050610fa46000830184610ea6565b92915050565b6000602082019050610fbf6000830184610e97565b92915050565b6000604082019050610fda6000830185610ea6565b610fe76020830184610ea6565b9392505050565b60006040820190506110036000830185610eb5565b81810360208301526110158184610ed3565b90509392505050565b600060a0820190506110336000830188610ec4565b6110406020830187610f6b565b61104d6040830186610f3e565b61105a6060830185610f5c565b6110676080830184610f5c565b9695505050505050565b60006020820190506110866000830184610f0c565b92915050565b60006020820190506110a16000830184610f4d565b92915050565b60006060820190506110bc6000830186610f4d565b6110c96020830185610f4d565b6110d66040830184610f4d565b949350505050565b60006110e86110f9565b90506110f482826112b8565b919050565b6000604051905090565b600067ffffffffffffffff82111561111e5761111d6113d6565b5b602082029050602081019050919050565b600067ffffffffffffffff82111561114a576111496113d6565b5b61115382611423565b9050602081019050919050565b600081519050919050565b600082825260208201905092915050565b600081905092915050565b600061119282611236565b915061119d83611236565b9250828210156111b0576111af61131a565b5b828203905092915050565b60006111c682611216565b9050919050565b60006111d882611216565b9050919050565b60008115159050919050565b6000819050919050565b600081905061120382611437565b919050565b600061ffff82169050919050565b600073ffffffffffffffffffffffffffffffffffffffff82169050919050565b6000819050919050565b600063ffffffff82169050919050565b600067ffffffffffffffff82169050919050565b600061126f826111f5565b9050919050565b82818337600083830152505050565b60005b838110156112a3578082015181840152602081019050611288565b838111156112b2576000848401525b50505050565b6112c182611423565b810181811067ffffffffffffffff821117156112e0576112df6113d6565b5b80604052505050565b60006112f482611236565b91506112ff83611236565b92508261130f5761130e611349565b5b828206905092915050565b7f4e487b7100000000000000000000000000000000000000000000000000000000600052601160045260246000fd5b7f4e487b7100000000000000000000000000000000000000000000000000000000600052601260045260246000fd5b7f4e487b7100000000000000000000000000000000000000000000000000000000600052602160045260246000fd5b7f4e487b7100000000000000000000000000000000000000000000000000000000600052603260045260246000fd5b7f4e487b7100000000000000000000000000000000000000000000000000000000600052604160045260246000fd5b600080fd5b600080fd5b600080fd5b600080fd5b600080fd5b600080fd5b6000601f19601f8301169050919050565b50565b6002811061144857611447611378565b5b50565b61145481611236565b811461145f57600080fd5b5056fea26469706673582212201882fd95a525aadd67123e943148d55122e64ccee6662f0777f9cb48b5d44d9d64736f6c63430008070033",
  "linkReferences": {},
  "deployedLinkReferences": {}
}